{
  "contractName": "Counter",
  "abi": [
    {
      "inputs": [
        {
          "internalType": "address",
          "name": "owner",
          "type": "address"
        }
      ],
      "payable": false,
      "stateMutability": "nonpayable",
      "type": "constructor"
    },
    {
      "constant": true,
      "inputs": [],
      "name": "getCount",
      "outputs": [
        {
          "internalType": "uint256",
          "name": "",
          "type": "uint256"
        }
      ],
      "payable": false,
      "stateMutability": "view",
      "type": "function"
    },
    {
      "constant": false,
      "inputs": [
        {
          "internalType": "address",
          "name": "caller",
          "type": "address"
        }
      ],
      "name": "increment",
      "outputs": [],
      "payable": false,
      "stateMutability": "nonpayable",
      "type": "function"
    }
  ],
  "bytecode": "0x608060405234801561001057600080fd5b5060405161034d38038061034d8339818101604052602081101561003357600080fd5b810190808051906020019092919050505080600160006101000a81548173ffffffffffffffffffffffffffffffffffffffff021916908373ffffffffffffffffffffffffffffffffffffffff16021790555033600260006101000a81548173ffffffffffffffffffffffffffffffffffffffff021916908373ffffffffffffffffffffffffffffffffffffffff16021790555050610277806100d66000396000f3fe608060405234801561001057600080fd5b50600436106100365760003560e01c806345f43dd81461003b578063a87d942c1461007f575b600080fd5b61007d6004803603602081101561005157600080fd5b81019080803573ffffffffffffffffffffffffffffffffffffffff16906020019092919050505061009d565b005b610087610239565b6040518082815260200191505060405180910390f35b600260009054906101000a900473ffffffffffffffffffffffffffffffffffffffff1673ffffffffffffffffffffffffffffffffffffffff163373ffffffffffffffffffffffffffffffffffffffff1614610160576040517f08c379a000000000000000000000000000000000000000000000000000000000815260040180806020018281038252601b8152602001807f594f75206e65656420746f207573652074686520466163746f7279000000000081525060200191505060405180910390fd5b80600160009054906101000a900473ffffffffffffffffffffffffffffffffffffffff1673ffffffffffffffffffffffffffffffffffffffff168173ffffffffffffffffffffffffffffffffffffffff1614610224576040517f08c379a00000000000000000000000000000000000000000000000000000000081526004018080602001828103825260158152602001807f596f7520617265206e6f7420746865206f6e776572000000000000000000000081525060200191505060405180910390fd5b60008081548092919060010191905055505050565b6000805490509056fea265627a7a72315820ecc73b467425473bad0efac492b55ecd816778e605f55b0a4cf6a6fc709d0ace64736f6c63430005100032",
  "source": "// SPDX-License-Identifier: MIT\npragma solidity >=0.4.22 <0.9.0;\n\ncontract Counter {\n\n  uint256 private _count;\n  address private _owner;\n  address private _factory;\n\n\n  modifier onlyOwner(address caller) {\n    require(caller == _owner, \"You are not the onwer\");\n    _;\n  }\n\n  modifier onlyFactory(){\n    require(msg.sender == _factory, \"YOu need to use the Factory\");\n    _;\n  }\n\n  constructor(address owner) public {\n    _owner = owner;\n    _factory = msg.sender;\n  }\n\n  function getCount() public view returns (uint256) {\n    return _count;\n  }\n\n  function increment(address caller) public onlyFactory onlyOwner(caller) {\n    _count++;\n  }\n\n}",
  "sourcePath": "/Users/ab/nottobebackedup/Blockchain/etherium/Counter/contracts/Counter.sol",
  "compiler": {
    "name": "solc",
    "version": "0.5.16+commit.9c3226ce.Emscripten.clang"
  },
  "schemaVersion": "3.4.3",
  "updatedAt": "2021-10-08T10:51:41.369Z",
  "devdoc": {
    "methods": {}
  },
  "userdoc": {
    "methods": {}
  }
}