{
  "contractName": "IncrementCounter",
  "abi": [
    {
      "inputs": [
        {
          "internalType": "uint256",
          "name": "startValue",
          "type": "uint256"
        }
      ],
      "payable": false,
      "stateMutability": "nonpayable",
      "type": "constructor"
    },
    {
      "anonymous": false,
      "inputs": [
        {
          "indexed": false,
          "internalType": "uint256",
          "name": "newValue",
          "type": "uint256"
        }
      ],
      "name": "ValueChanged",
      "type": "event"
    },
    {
      "constant": true,
      "inputs": [],
      "name": "getCount",
      "outputs": [
        {
          "internalType": "uint256",
          "name": "",
          "type": "uint256"
        }
      ],
      "payable": false,
      "stateMutability": "view",
      "type": "function"
    },
    {
      "constant": false,
      "inputs": [],
      "name": "step",
      "outputs": [],
      "payable": false,
      "stateMutability": "nonpayable",
      "type": "function"
    }
  ],
  "bytecode": "0x608060405234801561001057600080fd5b506040516101493803806101498339818101604052602081101561003357600080fd5b81019080805190602001909291905050508080600081905550505060ed8061005c6000396000f3fe6080604052348015600f57600080fd5b506004361060325760003560e01c8063a87d942c146037578063e25fe175146053575b600080fd5b603d605b565b6040518082815260200191505060405180910390f35b60596064565b005b60008054905090565b60736001606e605b565b016075565b565b806000819055507f93fe6d397c74fdf1402a8b72e47b68512f0510d7b98a4bc4cbdf6ac7108b3c596000546040518082815260200191505060405180910390a15056fea265627a7a723158208e86e3810329298d96e6c0bf9fe1c16b5fe5570eed3b9c5fa9d72e7e19004a7464736f6c63430005100032",
  "source": "pragma solidity >=0.4.22 <0.9.0;\n\nimport \"./Counter.sol\";\n\ncontract IncrementCounter is Counter {\n\tconstructor(uint256 startValue) Counter(startValue) public {}\n\n\tfunction step() public {\n\t\tsetCounter(getCount() + 1 );\n\t}\n}",
  "sourcePath": "/Users/ab/nottobebackedup/Blockchain/etherium/Counter/contracts/IncrementCounter.sol",
  "compiler": {
    "name": "solc",
    "version": "0.5.16+commit.9c3226ce.Emscripten.clang"
  },
  "schemaVersion": "3.4.3",
  "updatedAt": "2021-10-08T09:14:44.260Z",
  "networkType": "ethereum",
  "devdoc": {
    "methods": {}
  },
  "userdoc": {
    "methods": {}
  }
}